{
  "contractName": "Reuniones",
  "abi": [
    {
      "constant": false,
      "inputs": [
        {
          "name": "id",
          "type": "uint256"
        },
        {
          "name": "tema",
          "type": "string"
        },
        {
          "name": "fecha",
          "type": "string"
        }
      ],
      "name": "registrarReunion",
      "outputs": [],
      "payable": false,
      "stateMutability": "nonpayable",
      "type": "function"
    },
    {
      "constant": false,
      "inputs": [
        {
          "name": "idReunion",
          "type": "uint256"
        },
        {
          "name": "hash",
          "type": "string"
        },
        {
          "name": "url",
          "type": "string"
        }
      ],
      "name": "registrarFoto",
      "outputs": [],
      "payable": false,
      "stateMutability": "nonpayable",
      "type": "function"
    },
    {
      "constant": true,
      "inputs": [
        {
          "name": "id",
          "type": "uint256"
        }
      ],
      "name": "consultarNumeroDeFotos",
      "outputs": [
        {
          "name": "",
          "type": "uint256"
        }
      ],
      "payable": false,
      "stateMutability": "view",
      "type": "function"
    },
    {
      "constant": true,
      "inputs": [
        {
          "name": "idReunion",
          "type": "uint256"
        },
        {
          "name": "idFoto",
          "type": "uint256"
        }
      ],
      "name": "consultarFoto",
      "outputs": [
        {
          "name": "",
          "type": "string"
        },
        {
          "name": "",
          "type": "string"
        }
      ],
      "payable": false,
      "stateMutability": "view",
      "type": "function"
    },
    {
      "constant": true,
      "inputs": [
        {
          "name": "idReunion",
          "type": "uint256"
        }
      ],
      "name": "consultarReunion",
      "outputs": [
        {
          "name": "",
          "type": "string"
        },
        {
          "name": "",
          "type": "string"
        }
      ],
      "payable": false,
      "stateMutability": "view",
      "type": "function"
    },
    {
      "constant": true,
      "inputs": [
        {
          "name": "idReunion",
          "type": "uint256"
        },
        {
          "name": "hash",
          "type": "string"
        },
        {
          "name": "idFoto",
          "type": "uint256"
        }
      ],
      "name": "consultarAutenticidadSegun",
      "outputs": [
        {
          "name": "",
          "type": "bool"
        }
      ],
      "payable": false,
      "stateMutability": "view",
      "type": "function"
    }
  ],
  "bytecode": "0x608060405234801561001057600080fd5b50610d59806100206000396000f3fe608060405234801561001057600080fd5b50600436106100625760003560e01c80631e9bc18514610067578063254e76e5146101c35780639b98a7211461031f5780639fadb60114610432578063dc5845971461054f578063dff4376714610636575b600080fd5b6101c16004803603606081101561007d57600080fd5b8101908080359060200190929190803590602001906401000000008111156100a457600080fd5b8201836020820111156100b657600080fd5b803590602001918460018302840111640100000000831117156100d857600080fd5b91908080601f016020809104026020016040519081016040528093929190818152602001838380828437600081840152601f19601f8201169050808301925050505050505091929192908035906020019064010000000081111561013b57600080fd5b82018360208201111561014d57600080fd5b8035906020019184600183028401116401000000008311171561016f57600080fd5b91908080601f016020809104026020016040519081016040528093929190818152602001838380828437600081840152601f19601f820116905080830192505050505050509192919290505050610678565b005b61031d600480360360608110156101d957600080fd5b81019080803590602001909291908035906020019064010000000081111561020057600080fd5b82018360208201111561021257600080fd5b8035906020019184600183028401116401000000008311171561023457600080fd5b91908080601f016020809104026020016040519081016040528093929190818152602001838380828437600081840152601f19601f8201169050808301925050505050505091929192908035906020019064010000000081111561029757600080fd5b8201836020820111156102a957600080fd5b803590602001918460018302840111640100000000831117156102cb57600080fd5b91908080601f016020809104026020016040519081016040528093929190818152602001838380828437600081840152601f19601f82011690508083019250505050505050919291929050505061071b565b005b61034b6004803603602081101561033557600080fd5b810190808035906020019092919050505061078e565b604051808060200180602001838103835285818151815260200191508051906020019080838360005b8381101561038f578082015181840152602081019050610374565b50505050905090810190601f1680156103bc5780820380516001836020036101000a031916815260200191505b50838103825284818151815260200191508051906020019080838360005b838110156103f55780820151818401526020810190506103da565b50505050905090810190601f1680156104225780820380516001836020036101000a031916815260200191505b5094505050505060405180910390f35b6104686004803603604081101561044857600080fd5b8101908080359060200190929190803590602001909291905050506108fc565b604051808060200180602001838103835285818151815260200191508051906020019080838360005b838110156104ac578082015181840152602081019050610491565b50505050905090810190601f1680156104d95780820380516001836020036101000a031916815260200191505b50838103825284818151815260200191508051906020019080838360005b838110156105125780820151818401526020810190506104f7565b50505050905090810190601f16801561053f5780820380516001836020036101000a031916815260200191505b5094505050505060405180910390f35b61061c6004803603606081101561056557600080fd5b81019080803590602001909291908035906020019064010000000081111561058c57600080fd5b82018360208201111561059e57600080fd5b803590602001918460018302840111640100000000831117156105c057600080fd5b91908080601f016020809104026020016040519081016040528093929190818152602001838380828437600081840152601f19601f82011690508083019250505050505050919291929080359060200190929190505050610aa4565b604051808215151515815260200191505060405180910390f35b6106626004803603602081101561064c57600080fd5b8101908080359060200190929190505050610bcc565b6040518082815260200191505060405180910390f35b610680610bee565b6040518060400160405280848152602001838152509050600080858152602001908152602001600020600301819080600181540180825580915050906001820390600052602060002090600202016000909192909190915060008201518160000190805190602001906106f4929190610c08565b506020820151816001019080519060200190610711929190610c08565b5050505050505050565b826000808581526020019081526020016000206000018190555081600080858152602001908152602001600020600101908051906020019061075e929190610c88565b50806000808581526020019081526020016000206002019080519060200190610788929190610c88565b50505050565b606080600080848152602001908152602001600020600101600080858152602001908152602001600020600201818054600181600116156101000203166002900480601f0160208091040260200160405190810160405280929190818152602001828054600181600116156101000203166002900480156108505780601f1061082557610100808354040283529160200191610850565b820191906000526020600020905b81548152906001019060200180831161083357829003601f168201915b50505050509150808054600181600116156101000203166002900480601f0160208091040260200160405190810160405280929190818152602001828054600181600116156101000203166002900480156108ec5780601f106108c1576101008083540402835291602001916108ec565b820191906000526020600020905b8154815290600101906020018083116108cf57829003601f168201915b5050505050905091509150915091565b606080600080858152602001908152602001600020600301838154811061091f57fe5b9060005260206000209060020201600101600080868152602001908152602001600020600301848154811061095057fe5b9060005260206000209060020201600001818054600181600116156101000203166002900480601f0160208091040260200160405190810160405280929190818152602001828054600181600116156101000203166002900480156109f65780601f106109cb576101008083540402835291602001916109f6565b820191906000526020600020905b8154815290600101906020018083116109d957829003601f168201915b50505050509150808054600181600116156101000203166002900480601f016020809104026020016040519081016040528092919081815260200182805460018160011615610100020316600290048015610a925780601f10610a6757610100808354040283529160200191610a92565b820191906000526020600020905b815481529060010190602001808311610a7557829003601f168201915b50505050509050915091509250929050565b6000826040516020018082805190602001908083835b60208310610add5780518252602082019150602081019050602083039250610aba565b6001836020036101000a038019825116818451168082178552505050505050905001915050604051602081830303815290604052805190602001206000808681526020019081526020016000206003018381548110610b3857fe5b90600052602060002090600202016000016040516020018082805460018160011615610100020316600290048015610ba75780601f10610b85576101008083540402835291820191610ba7565b820191906000526020600020905b815481529060010190602001808311610b93575b5050915050604051602081830303815290604052805190602001201490509392505050565b6000806000838152602001908152602001600020600301805490509050919050565b604051806040016040528060608152602001606081525090565b828054600181600116156101000203166002900490600052602060002090601f016020900481019282601f10610c4957805160ff1916838001178555610c77565b82800160010185558215610c77579182015b82811115610c76578251825591602001919060010190610c5b565b5b509050610c849190610d08565b5090565b828054600181600116156101000203166002900490600052602060002090601f016020900481019282601f10610cc957805160ff1916838001178555610cf7565b82800160010185558215610cf7579182015b82811115610cf6578251825591602001919060010190610cdb565b5b509050610d049190610d08565b5090565b610d2a91905b80821115610d26576000816000905550600101610d0e565b5090565b9056fea165627a7a72305820f637746a48ab8a3b7681c1846549cac12c3b9e2762b2fb62e1b5a1537b129ff60029",
  "source": "pragma solidity ^0.5.0;\r\ncontract Reuniones{\r\n    \r\n          struct Foto{\r\n        string hash;\r\n        string url;\r\n          }\r\n    \r\n      struct Reunion{\r\n        uint id;\r\n        string tema;\r\n        string fecha;\r\n        Foto[] foto;\r\n    }\r\n \r\n    \r\n       mapping (uint=>Reunion) reuniones;\r\n\r\n        \r\n        \r\n        function registrarReunion (uint id,string memory tema, string memory fecha) public{\r\n       reuniones[id].id=id;\r\n       reuniones[id].tema=tema;\r\n       reuniones[id].fecha=fecha;\r\n}\r\n\r\n        function registrarFoto(uint idReunion, string memory hash, string memory url) public{\r\n            Foto memory foto= Foto(hash,url);\r\n            reuniones[idReunion].foto.push(foto);\r\n    \r\n        }\r\n\r\n  function consultarNumeroDeFotos(uint id) public view returns(uint){\r\n            return(reuniones[id].foto.length);\r\n        }\r\n        \r\n        \r\n function consultarFoto(uint idReunion, uint idFoto) public view returns(string memory, string memory){\r\n            return(reuniones[idReunion].foto[idFoto].url, reuniones[idReunion].foto[idFoto].hash);\r\n        }\r\n        \r\nfunction consultarReunion(uint idReunion) public view returns(string memory, string memory){\r\n            return(reuniones[idReunion].tema, reuniones[idReunion].fecha);\r\n        }\r\n        \r\n        \r\n        function consultarAutenticidadSegun(uint idReunion, string memory hash, uint idFoto) public view returns(bool){\r\n            return(keccak256(abi.encodePacked(reuniones[idReunion].foto[idFoto].hash))==keccak256(abi.encodePacked(hash)));\r\n        }\r\n        \r\n        \r\n        \r\n        \r\n        \r\n      \r\n}",
  "sourcePath": "C:/Users/Labing/HolaMundo/contracts/Reuniones.sol",
  "compiler": {
    "name": "solc",
    "version": "0.5.8+commit.23d335f2.Emscripten.clang"
  },
  "schemaVersion": "3.0.12",
  "updatedAt": "2019-08-16T13:22:28.857Z",
  "devdoc": {
    "methods": {}
  },
  "userdoc": {
    "methods": {}
  }
}